:100000000C945D000C94DF000C94AE000C94DF00A7
:100010000C94DF000C94DF000C94DF000C94DF00E4
:100020000C94DF000C94DF000C94DF000C94DF00D4
:100030000C94DF000C94DF000C94DF000C94DF00C4
:100040000C94DF000C94DF000C94DF000C94DF00B4
:100050000C94DF000C94DF000C94DF000C94DF00A4
:100060000C94DF000C94DF000C94DF000C94DF0094
:100070000C94DF000C94DF000C94DF000C94DF0084
:100080000C94DF000C94DF000C94DF000C94DF0074
:100090000C94DF000C94DF000C94DF000C94DF0064
:1000A0000C94DF000C94DF000C94DF000C94DF0054
:1000B0000C94DF0001000102800011241FBECFEF6D
:1000C000D8E0DEBFCDBFE4EBF0E040E017C0B59173
:1000D000A59135912591059107FD0CC095918591CC
:1000E000EF01F92FE82F05900D92A217B307D9F76A
:1000F000FE0104C01D92A217B307E1F7E93BF40724
:0E01000031F70E9487000C94D400F894FFCFD2
:10010E008CE08093690082E08DBB78948FEF84B988
:10011E0015B813C0029710F481E085B98FE99FE0FE
:10012E000197F1F700C0000080910001909101014C
:10013E0001969093010180930001809100019091AE
:0E014E000101883B2BE092072CF315B8F6CF89
:10015C001F920F920FB60F9211242F938F939F9390
:10016C008091000190910101883B9B4049F088E10E
:10017C009CEF90930101809300018FEF85B904C02F
:10018C00109201011092000182E08CBB9F918F9123
:0C019C002F910F900FBE0F901F90189530
:1001A800EC010E94E4000E94E300CE010E94E500F9
:0601B800CE010E94E100EF
:0401BE000C9400009D
:0401C2000E94850012
:0201C60008959A
:0201C800089598
:0201CA00089596
:00000001FF
